:100000000C9476000C949E000C949E000C949E0020
:100010000C941F040C949E000C949E000C94CC0332
:100020000C949E000C949E000C949E000C949E00D8
:100030000C949E000C949E000C949E000C949E00C8
:100040000C9482030C949E000C9450030C942A038D
:100050000C949E000C949E000C949E000C949E00A8
:100060000C949E000C949E0007634236B79BD8A761
:100070001A39685618AEBAAB558C1D3CB7CC5763CD
:10008000BD6DEDFD753EF6177231BF000000803F7B
:1000900000000000240027002A00000000002500C6
:1000A00028002B0000000000230026002900040483
:1000B0000404040404040202020202020303030310
:1000C00003030102040810204080010204081020EC
:1000D00001020408102000000008000201000003D3
:1000E00004070000000000000000440411241FBEAB
:1000F000CFEFD8E0DEBFCDBF22E0A8E1B1E001C084
:100100001D92A032B207E1F711E0A0E0B1E0EEEC01
:10011000F6E102C005900D92A831B107D9F710E0C1
:10012000C6E7D0E004C02197FE010E941C08C53735
:10013000D107C9F70E9495040C94650B0C9400003C
:10014000CF92DF92EF92FF920F931F93CF93DF93A3
:100150006C017A018B01C0E0D0E0CE15DF0589F09B
:10016000D8016D918D01D601ED91FC910190F08146
:10017000E02DC6010995892B11F47E0102C021965C
:10018000ECCFC701DF91CF911F910F91FF90EF90BE
:10019000DF90CF900895FC01918D828D981761F0CA
:1001A000828DDF01A80FB11D5D968C91928D9F5FAE
:1001B0009F73928F90E008958FEF9FEF0895FC0159
:1001C000918D828D981731F0828DE80FF11D858D0C
:1001D00090E008958FEF9FEF0895FC01918D228D9F
:1001E000892F90E0805C9F4F821B91098F73992724
:1001F000089585E691E00E94ED0021E0892B09F445
:1002000020E0822F0895FC01848DDF01A80FB11D2D
:10021000A35ABF4F2C91848D90E001968F7399273C
:10022000848FA689B7892C93A089B1898C91806429
:100230008C93938D848D981306C00288F389E02DEA
:1002400080818F7D80830895EF92FF920F931F939B
:10025000CF93DF93EC0181E0888F9B8D8C8D981379
:1002600005C0E889F989808185FD24C0F62E0B8DB3
:1002700010E00F5F1F4F0F731127E02E8C8DE812D7
:100280000CC00FB607FCFACFE889F989808185FF99
:10029000F5CFCE010E940301F1CF8B8DFE01E80F57
:1002A000F11DE35AFF4FF0820B8FEA89FB898081B1
:1002B000806207C0EE89FF896083E889F9898081BF
:1002C0008064808381E090E0DF91CF911F910F9156
:1002D000FF90EF900895CF93DF93EC01888D8823F2
:1002E000C9F0EA89FB89808185FD05C0A889B989A3
:1002F0008C9186FD0FC00FB607FCF5CF808185FF7E
:10030000F2CFA889B9898C9185FFEDCFCE010E94EB
:100310000301E7CFDF91CF91089580E090E0892B32
:1003200029F00E94F90081110C9400000895833097
:1003300081F028F4813099F08230A1F0089587305F
:10034000A9F08830B9F08430D1F4809180008F7D9D
:1003500003C0809180008F7780938000089584B5DA
:100360008F7702C084B58F7D84BD08958091B000E1
:100370008F7703C08091B0008F7D8093B000089587
:100380001F93CF93DF93282F30E0F901EA52FF4FFC
:100390008491F901EE53FF4FD491F901E255FF4FDB
:1003A000C491CC23C9F0162F81110E949701EC2F24
:1003B000F0E0EE0FFF1FE656FF4FA591B4918FB707
:1003C000F894111105C09C91ED2FE095E92302C02E
:1003D000EC91ED2BEC938FBFDF91CF911F9108959E
:1003E000CF93DF9390E0FC01EE53FF4F2491FC018B
:1003F000E255FF4F8491882361F190E0880F991FA7
:10040000FC01E057FF4FC591D491FC01E656FF4F28
:10041000A591B491611109C09FB7F8948881209586
:1004200082238883EC912E230BC0623061F49FB746
:10043000F8943881822F809583238883EC912E2B2A
:100440002C939FBF06C08FB7F894E8812E2B28838A
:100450008FBFDF91CF9108951F93CF93DF93182F14
:10046000EB0161E00E94F001209711F460E004C00C
:10047000CF3FD10539F461E0812FDF91CF911F91FA
:100480000C94C001E12FF0E0EA52FF4FE491E33019
:10049000F9F048F4E130B9F0E230A1F584B58062BA
:1004A00084BDC8BD34C0E730E9F0E83019F1E4306C
:1004B00049F580918000806280938000D0938B000A
:1004C000C0938A0024C084B5806884BDC7BD1FC0A6
:1004D00080918000806880938000D0938900C093D1
:1004E000880015C08091B00080688093B000C093F0
:1004F000B3000DC08091B00080628093B000C093C3
:10050000B40005C0C038D1050CF0B5CFAFCFDF9136
:10051000CF911F9108953FB7F89480911901909160
:100520001A01A0911B01B0911C0126B5A89B05C022
:100530002F3F19F00196A11DB11D3FBFBA2FA92F62
:10054000982F8827820F911DA11DB11DBC01CD01DF
:1005500042E0660F771F881F991F4A95D1F70895CB
:100560008F929F92AF92BF920F931F93CF93DF937F
:10057000CDB7DEB7A1970FB6F894DEBF0FBECDBFE3
:1005800019A2423008F44AE08E010F5D1F4F842EFD
:10059000912CA12CB12CA50194010E94340BE62FC3
:1005A000B901CA0101501109EA3014F4E05D01C03B
:1005B000E95CD801EC93232B242B252B61F7011543
:1005C000110571F0F80101900020E9F73197AF01B2
:1005D000401B510BB80185E691E00E94A00002C0CB
:1005E00080E090E0A1960FB6F894DEBF0FBECDBFBD
:1005F000DF91CF911F910F91BF90AF909F908F90FF
:100600000895CF92DF92EF92FF92CF93DF936B0129
:100610007C01E0916501F09166010190F081E02D8F
:100620006DE285E691E00995EC0166277727CB011D
:100630006C197D098E099F094AE00E94B0028C0F57
:100640009D1FDF91CF91FF90EF90DF90CF900895A5
:100650000E94100B1F920F920FB60F9211242F932E
:100660003F934F935F936F937F938F939F93AF933A
:10067000BF93EF93FF9385E691E00E940301FF9102
:10068000EF91BF91AF919F918F917F916F915F910A
:100690004F913F912F910F900FBE0F901F90189583
:1006A0001F920F920FB60F9211242F938F939F9347
:1006B000EF93FF93E0917501F09176018081E091D5
:1006C0007B01F0917C0182FD12C0908180917E01BE
:1006D0008F5F8F7320917F01821751F0E0917E012F
:1006E000F0E0EB59FE4F958F80937E0101C0808131
:1006F000FF91EF919F918F912F910F900FBE0F90CF
:100700001F9018951F920F920FB60F9211242F93DE
:100710003F938F939F93AF93BF93809138019091B4
:100720003901A0913A01B0913B013091180123E0C9
:10073000230F2D3720F40196A11DB11D05C026E819
:10074000230F0296A11DB11D20931801809338013B
:1007500090933901A0933A01B0933B018091190124
:1007600090911A01A0911B01B0911C010196A11D4D
:10077000B11D8093190190931A01A0931B01B093AE
:100780001C01BF91AF919F918F913F912F910F903D
:100790000FBE0F901F9018951F920F920FB60F92D9
:1007A00011242F938F939F9326B1809132019091C2
:1007B000330122FF06C001969093330180933201EA
:1007C0000AC0009741F0909352018093510110921A
:1007D000330110923201809134019091350123FF51
:1007E00006C0019690933501809334010AC00097AA
:1007F00041F090935401809353011092350110926F
:100800003401809136019091370124FF06C0019692
:1008100090933701809336010AC0009741F090937E
:1008200056018093550110923701109236019F9125
:100830008F912F910F900FBE0F901F9018951F92C0
:100840000F920FB60F9211248F939F93AF93BF9384
:100850008091410190914201A0914301B0914401E6
:100860000196A11DB11D8093410190934201A09377
:100870004301B0934401BF91AF919F918F910F902D
:100880000FBE0F901F901895CF93DF93E5E6F1E030
:100890001382128288EE93E0A0E0B0E08483958317
:1008A000A683B78388E091E09183808385EC90E014
:1008B0009587848784EC90E09787868780EC90E02A
:1008C000918B808B81EC90E0938B828B82EC90E01B
:1008D000958B848B86EC90E0978B868B118E128E95
:1008E000138E148EC2E0D2E081E090E09983888379
:1008F00085EB91EBACEAB7E48A839B83AC83BD8341
:100900001A861B861C861D861E861F86188A198AD3
:100910001A8A1B8A1C8A1D8A0E948B026A8F7B8F0F
:100920008C8F9D8FDF91CF910895CF93DF93CDB7BB
:10093000DEB760970FB6F894DEBF0FBECDBF7894D8
:1009400084B5826084BD84B5816084BD85B58260D4
:1009500085BD85B5816085BD80916E008160809385
:100960006E001092810080918100826080938100EE
:1009700080918100816080938100809180008160FE
:10098000809380008091B10084608093B100809159
:10099000B00081608093B00080917A008460809381
:1009A0007A0080917A00826080937A0080917A0048
:1009B000816080937A0080917A00806880937A00C9
:1009C0001092C100E0917501F091760182E0808380
:1009D000E0917101F09172011082E0917301F09148
:1009E00074018FEC808310927D01E0917901F09188
:1009F0007A0186E08083E0917701F091780180812F
:100A000080618083E0917701F09178018081886036
:100A10008083E0917701F091780180818068808304
:100A2000E0917701F091780180818F7D8083F89447
:100A300087B1827E87B985B18D6185B980916C005F
:100A4000816080936C0088E08093B00081E08093A7
:100A5000B10080E88093B300809168008260809349
:100A60006800809170008260809370001092330162
:100A700010923201109252011092510110923501E0
:100A800010923401109254011092530110923701C8
:100A900010923601109256011092550110921E01CB
:100AA00010921F0110922001109221011092220138
:100AB0001092230110922401109225011092260118
:100AC00010922701109228011092290110922A01F8
:100AD00010922B0110922C0110922D0110922E01D8
:100AE00010922F01109230011092310110923D01AD
:100AF00010923E0110923F0110924001109241016C
:100B000010924201109243011092440110923C0154
:100B100010921D01789460E084E00E94F00160E092
:100B200088E00E94F00161E085E00E94F00161E050
:100B300086E00E94F00161E089E00E94F00196ECFD
:100B4000292E90E0392E02EB10E080915D01811199
:100B500016C02FB7F8948091380190913901A09177
:100B60003A01B0913B012FBF8093590190935A01F4
:100B7000A0935B01B0935C0121E020935D018FB7EE
:100B8000F894209138013091390140913A01509107
:100B90003B0129833A834B835C838FBF809149015A
:100BA00081110DC00E948B02609345017093460134
:100BB000809347019093480131E0309349010E94AE
:100BC0008B026D837E838F839887809145019091FE
:100BD0004601A0914701B09148012D813E814F818E
:100BE0005885281B390B4A0B5B0BDA01C90181328E
:100BF0009E44A105B10508F56091590170915A0113
:100C000080915B0190915C0124E130E040E050E094
:100C10000E94340B69017A0169817A818B819C8100
:100C200024E130E040E050E00E94340BC216D306CD
:100C3000E406F50609F024C180C16091410170917C
:100C4000420180914301909144010E946A096B0125
:100C50007C010E948B024B015C0180911C029091EF
:100C60001D02A0911E02B0911F02A5019401281B34
:100C7000390B4A0B5B0BCA01B9010E946C099B013D
:100C8000AC01609318027093190280931A0290933A
:100C90001B0280921C0290921D02A0921E02B09232
:100CA0001F0280910C0290910D02A0910E02B09152
:100CB0000F0289879A87AB87BC8780931002909335
:100CC0001102A0931202B0931302C0921402D092A8
:100CD0001502E0921602F092170240900402509022
:100CE00005026090060270900702C301B2010E94E3
:100CF0008F089B01AC0160930802709309028093F6
:100D00000A0290930B0260E070E080E89FEB0E9483
:100D10008F080E9409094B015C019B01AC0160E056
:100D200070E080E89FE30E9422089B01AC01C701AC
:100D3000B6010E94950A6D877E878F87988BA501E3
:100D4000940169857A858B859C850E94950A9B0113
:100D5000AC016D857E858F8598890E9423084B01A3
:100D60005C0160930C0270930D0280930E029093CD
:100D70000F02809102029091030281309105D1F11E
:100D80004CF4892BA1F5A5019401C701B6010E947D
:100D900022082AC082309105C9F0039741F5A501C8
:100DA0009401C701B6010E9422086B017C0120E07A
:100DB00034E244E759E4C301B2010E948F089B0169
:100DC000AC01C701B6010E948F080EC020E034E2DA
:100DD00044E759E4C301B2010E948F089B01AC01B2
:100DE000C501B4010E94950A4B015C0103C0812C2E
:100DF000912C5401C501B4010E943B0960933D014F
:100E000070933E0180933F019093400180913C019B
:100E10008F5F853018F480933C0102C010923C0132
:100E2000109241011092420110924301109244012C
:100E30008091450190914601A0914701B0914801F0
:100E40004D815E816F817885481B590B6A0B7B0B46
:100E50004132EEE45E076105710548F0805E914B1A
:100E6000AF4FBF4F40525E4461097109F1CF80938B
:100E7000450190934601A0934701B0934801BCCE31
:100E80006091510170915201072E000C880B990B53
:100E900097FF03C00E94010303C04AE00E94B00212
:100EA000E0916501F09166010190F081E02D60E232
:100EB00085E691E009956091530170915401072EE8
:100EC000000C880B990B97FF03C00E94010303C01D
:100ED0004AE00E94B002E0916501F0916601019044
:100EE000F081E02D60E285E691E009956091550181
:100EF00070915601072E000C880B990B97FF03C0C9
:100F00000E94010303C04AE00E94B00242E050E0A8
:100F100064E171E085E691E00E94A00060915701D4
:100F20007091580160957093580160935701062E97
:100F3000000C770B89E00E942C0280915101909166
:100F40005201E0905301F09054018091550190912D
:100F50005601EAEDF0E08491F1019491F801D4900A
:100F6000DD2061F081110E949701ED2DF0E0EE0F80
:100F7000FF1FEC55FF4FA591B4918C912E2D283079
:100F8000BCF0022E000C330BA2E0BFEF0E940D0854
:100F900024E630E040E050E00E94150BCA01B901A0
:100FA00061507F4F8F4F9F4F85E00E942C0222C0DF
:100FB00061E085E0293FE4F40E94C0014E2D5527F1
:100FC00041950CF450959A01A2E0BFEF0E940D08E4
:100FD00024E630E040E050E00E94150BCA01B90160
:100FE00061507F4F8F4F9F4F86E00E942C0206C0BA
:100FF0000E94C00161E086E00E94C00189819A815F
:10100000AB81BC818093590190935A01A0935B01FD
:10101000B0935C010E948D0198CD0E94560B332342
:1010200012F48A1B9B0B0C9417080E94560BB7FFF7
:101030000895821B930B0895EE0FFF1F0590F49106
:10104000E02D09945058BB27AA270E943A080C9417
:10105000E5090E94D70938F00E94DE0920F039F432
:101060009F3F19F426F40C94AD090EF4E095E7FBCC
:101070000C94A709E92F0E94F60958F3BA176207E2
:1010800073078407950720F079F4A6F50C94180AE5
:101090000EF4E0950B2EBA2FA02D0B01B901900193
:1010A0000C01CA01A0011124FF27591B99F0593FD7
:1010B00050F4503E68F11A16F040A22F232F342F1F
:1010C0004427585FF3CF469537952795A795F0406D
:1010D0005395C9F77EF41F16BA0B620B730B840B82
:1010E000BAF09150A1F0FF0FBB1F661F771F881F3A
:1010F000C2F70EC0BA0F621F731F841F48F4879592
:1011000077956795B795F7959E3F08F0B0CF939583
:10111000880F08F09927EE0F9795879508950E94FC
:10112000A3080C94E5090E94DE0958F00E94D70933
:1011300040F029F45F3F29F00C94A70951110C9459
:10114000190A0C94AD090E94F60968F39923B1F3CA
:10115000552391F3951B550BBB27AA2762177307DD
:10116000840738F09F5F5F4F220F331F441FAA1F71
:10117000A9F335D00E2E3AF0E0E832D0915050402D
:10118000E695001CCAF72BD0FE2F29D0660F771FDB
:10119000881FBB1F261737074807AB07B0E809F0C1
:1011A000BB0B802DBF01FF2793585F4F3AF09E3F46
:1011B000510578F00C94A7090C94190A5F3FE4F3E9
:1011C000983ED4F3869577956795B795F7959F5F89
:1011D000C9F7880F911D9695879597F90895E1E0D5
:1011E000660F771F881FBB1F621773078407BA0734
:1011F00020F0621B730B840BBA0BEE1F88F7E0958F
:10120000089529F416F00C94A7090C94180A0C946C
:10121000AD090E94FE09A8F39638A0F707F80F92CF
:10122000E8942BE33AEA48EB5FE70E94AB0A0F929F
:101230000F920F924DB75EB70F920E94610AE8E6D7
:10124000F0E00E94B0094F915F91EF91FF91E59519
:10125000EE1FFF1F49F0FE57E0684427EE0F441FC2
:10126000FA95E1F74195550B0E942B0A0F9007FE66
:101270000C941F0A08950E94FE0988F09F5798F069
:10128000B92F9927B751B0F0E1F0660F771F881F8B
:10129000991F1AF0BA95C9F714C0B13091F00E94A5
:1012A000180AB1E008950C94180A672F782F882740
:1012B000B85F39F0B93FCCF3869577956795B395CC
:1012C000D9F73EF490958095709561957F4F8F4F3B
:1012D0009F4F0895E89409C097FB3EF49095809540
:1012E000709561957F4F8F4F9F4F9923A9F0F92FEC
:1012F00096E9BB279395F695879577956795B7956A
:10130000F111F8CFFAF4BB0F11F460FF1BC06F5F4F
:101310007F4F8F4F9F4F16C0882311F096E911C061
:10132000772321F09EE8872F762F05C0662371F082
:1013300096E8862F70E060E02AF09A95660F771F96
:10134000881FDAF7880F9695879597F9089597F98A
:101350009F6780E870E060E008959FEF80EC08955B
:10136000DF93CF931F930F93FF92EF92DF927B0156
:101370008C01689406C0DA2EEF010E94A80AFE01D3
:10138000E894A5912591359145915591A6F3EF01EA
:101390000E943A08FE019701A801DA9469F7DF90EC
:1013A000EF90FF900F911F91CF91DF91089500244E
:1013B0000A941616170618060906089500240A94BA
:1013C00012161306140605060895092E0394000C40
:1013D00011F4882352F0BB0F40F4BF2B11F460FFCF
:1013E00004C06F5F7F4F8F4F9F4F089557FD9058F8
:1013F000440F551F59F05F3F71F04795880F97FBD9
:10140000991F61F09F3F79F0879508951216130692
:101410001406551FF2CF4695F1DF08C016161706C1
:101420001806991FF1CF86957105610508940895F6
:10143000E894BB2766277727CB0197F908959B018E
:10144000AC0160E070E080E89FE30C948F080C949E
:10145000A7090C94020B0E94FE09D8F39923C9F343
:10146000940F511DA3F39150504094F059F08823EC
:1014700032F0660F771F881F91505040C1F79E3F92
:1014800051052CF7880F911D9695879597F908952A
:101490005F3FACF0983E9CF0BB27869577956795AB
:1014A000B79508F4B1609395C1F7BB0F58F711F4E5
:1014B00060FFE8CF6F5F7F4F8F4F9F4FE3CF0C945C
:1014C000190AFA01DC01AA0FBB1F9B01AC01BF572F
:1014D00028F4222733274427507820C0B75190F4AE
:1014E000AB2F0024469537952795011CA395D2F381
:1014F000002071F0220F331F441FB395DAF30ED092
:101500000C94220861307105A0E88A07B94630F4CE
:101510009B01AC016627772788279078309621F0C9
:10152000208331834283538308950E94A80A0C9438
:10153000E5090E94D70938F00E94DE0920F09523C2
:1015400011F00C94A7090C94AD0911240C94190AFC
:101550000E94F60970F3959FC1F3950F50E0551F57
:10156000629FF001729FBB27F00DB11D639FAA27F8
:10157000F00DB11DAA1F649F6627B00DA11D661F47
:10158000829F2227B00DA11D621F739FB00DA11D68
:10159000621F839FA00D611D221F749F3327A00D22
:1015A000611D231F849F600D211D822F762F6A2FBE
:1015B00011249F5750409AF0F1F088234AF0EE0F23
:1015C000FF1FBB1F661F771F881F91505040A9F750
:1015D0009E3F510580F00C94A7090C94190A5F3FB7
:1015E000E4F3983ED4F3869577956795B795F7958C
:1015F000E7959F5FC1F7FE2B880F911D9695879504
:1016000097F908959F3F31F0915020F48795779591
:101610006795B795880F911D9695879597F90895C9
:1016200081E090E0F8940C94650B052E97FB1EF476
:1016300000940E942C0B57FD07D00E94340B07FC2E
:1016400003D04EF40C942C0B509540953095219579
:101650003F4F4F4F5F4F08959095809570956195DE
:101660007F4F8F4F9F4F0895A1E21A2EAA1BBB1BDD
:10167000FD010DC0AA1FBB1FEE1FFF1FA217B3075E
:10168000E407F50720F0A21BB30BE40BF50B661F74
:10169000771F881F991F1A9469F760957095809538
:1016A00090959B01AC01BD01CF010895A29FB001AF
:1016B000B39FC001A39F700D811D1124911DB29F86
:0E16C000700D811D1124911D0895F894FFCF27
:1016CE0001000000000000002401A000ED00CB008E
:0816DE00DF006B010D0A0000A2
:00000001FF
