:100000000C945C000C94D1010C9479000C94790050
:100010000C94E8010C9447020C9479000C9479003C
:100020000C9479000C9479000C9479000C9479006C
:100030000C9479000C9479000C9479000C9479005C
:100040000C9487010C9479000C9479000C9479003D
:100050000C9479000C9479000C9479000C9479003C
:100060000C9479000C947900000000002400270013
:100070002A0000000000250028002B0004040404CE
:100080000404040402020202020203030303030342
:10009000010204081020408001020408102001021F
:1000A00004081020000000080002010000030407FB
:1000B000000000000000000011241FBECFEFD8E0B8
:1000C000DEBFCDBF21E0A4E0B1E001C01D92AA36A1
:1000D000B207E1F711E0A0E0B1E0E8E8FAE002C021
:1000E00005900D92A430B107D9F70E94A7020C9495
:1000F00042050C94000090E0FC01EC55FF4F349158
:10010000FC01E057FF4F2491FC01E458FF4FE491BC
:10011000EE2309F43BC0332339F1333091F038F446
:100120003130A9F0323001F584B58F7D12C03730FF
:1001300091F03830A1F03430B9F4809180008F7D97
:1001400003C0809180008F77809380000DC084B5BC
:100150008F7784BD09C08091B0008F7703C08091F4
:10016000B0008F7D8093B000F0E0EE0FFF1FEE58DF
:10017000FF4FA591B4918FB7F894EC91611103C032
:1001800020952E2301C02E2B2C938FBF0895CF9343
:10019000DF9390E0FC01E057FF4F2491FC01E4580D
:1001A000FF4F8491882361F190E0880F991FFC0133
:1001B000E859FF4FC591D491FC01EE58FF4FA5912E
:1001C000B491611109C09FB7F8948881209582236A
:1001D0008883EC912E230BC0623061F49FB7F894B2
:1001E0003881822F809583238883EC912E2B2C934A
:1001F0009FBF06C08FB7F894E8812E2B28838FBF4E
:10020000DF91CF9108951F93CF93DF93182FEB01C8
:1002100061E00E94C700209711F460E004C0CF3F66
:10022000D10539F461E0812FDF91CF911F910C94BA
:100230007B00E12FF0E0EC55FF4FE491E330F9F063
:1002400048F4E130B9F0E230A1F584B5806284BDB4
:10025000C8BD34C0E730E9F0E83019F1E43049F5C1
:1002600080918000806280938000D0938B00C09347
:100270008A0024C084B5806884BDC7BD1FC080913A
:100280008000806880938000D0938900C0938800AC
:1002900015C08091B00080688093B000C093B30017
:1002A0000DC08091B00080628093B000C093B40014
:1002B00005C0C038D1050CF0B5CFAFCFDF91CF91DD
:1002C0001F9108953FB7F894809105019091060120
:1002D000A0910701B091080126B5A89B05C02F3F4A
:1002E00019F00196A11DB11D3FBFBA2FA92F982F5C
:1002F0008827820F911DA11DB11DBC01CD0142E0D7
:10030000660F771F881F991F4A95D1F708951F928E
:100310000F920FB60F9211242F933F938F939F93B9
:10032000AF93BF938091140190911501A091160194
:10033000B09117013091040123E0230F2D3720F4F1
:100340000196A11DB11D05C026E8230F0296A11D2F
:10035000B11D209304018093140190931501A09383
:100360001601B09317018091050190910601A091AB
:100370000701B09108010196A11DB11D80930501EF
:1003800090930601A0930701B0930801BF91AF912C
:100390009F918F913F912F910F900FBE0F901F90C3
:1003A00018951F920F920FB60F9211248F939F935F
:1003B00080914E0190914F01019690934F0180934F
:1003C0004E019F918F910F900FBE0F901F90189527
:1003D0001F920F920FB60F9211240F931F932F931A
:1003E0003F934F935F936F937F938F939F93AF93BD
:1003F000BF93CF93DF93EF93FF930E94620146B1C7
:10040000342F367020914901532F522752FF14C0C8
:10041000E42FE695E69521E02E27022F017010E0EB
:10042000F8013496EE0FFF1FEE0FFF1FE85DFE4F41
:10043000608371838283938351FF12C0469521E0CC
:1004400024272170C22F20E0D22F2696CC0FDD1F4B
:10045000CC0FDD1FC85DDE4F688379838A839B8361
:1004600030934901FF91EF91DF91CF91BF91AF910F
:100470009F918F917F916F915F914F913F912F91BC
:100480001F910F910F900FBE0F901F9018951F9204
:100490000F920FB60F9211240F931F932F933F9338
:1004A0004F935F936F937F938F939F93AF93BF937C
:1004B000CF93DF93EF93FF930E94620149B1342FF2
:1004C0003C7020914A01532F522752FF13C0E42F52
:1004D000E695E69521E02E27022F017010E0000F2F
:1004E000111F000F111FF801E85DFE4F608371833B
:1004F0008283938353FF14C046954695469521E029
:1005000024272170C22F20E0D22F2296CC0FDD1F8E
:10051000CC0FDD1FC85DDE4F688379838A839B83A0
:1005200030934A01FF91EF91DF91CF91BF91AF914D
:100530009F918F917F916F915F914F913F912F91FB
:100540001F910F910F900FBE0F901F901895CF9392
:10055000DF93CDB7DEB72D970FB6F894DEBF0FBE91
:10056000CDBF789484B5826084BD84B5816084BD3C
:1005700085B5826085BD85B5816085BD80916E0041
:10058000816080936E001092810080918100826072
:1005900080938100809181008160809381008091AF
:1005A00080008160809380008091B100846080939E
:1005B000B1008091B00081608093B00080917A009A
:1005C000846080937A0080917A00826080937A00C0
:1005D00080917A00816080937A0080917A008068AF
:1005E00080937A001092C10087B1897F87B980918A
:1005F0006C00866080936C0086B1867080934901A0
:1006000080916800826080936800529881E08093B6
:1006100069008DBBA8E1B1E080E090E0FC0153E00F
:10062000EE0FFF1F5A95E1F7E85DFE4F1482158229
:100630001682178210821182128213821D921D92DD
:100640001D921D9201968430910541F7EAE0F1E098
:100650008AE08E0F11928E13FDCF10924D011092F1
:100660004C0110924F0110924E0110924B011092CA
:10067000090160E088E00E94C70060E08AE00E9413
:10068000C70061E085E00E94C70061E086E00E944B
:10069000C70061E087E00E94C70061E089E00E9436
:1006A000C70061E087E00E947B0034E1C32ED12CBB
:1006B000E12CF12C44E6842E912CA12CB12C8091BC
:1006C0006201811116C02FB7F894809114019091A6
:1006D0001501A0911601B09117012FBF80935E0103
:1006E00090935F01A0936001B093610121E020939A
:1006F00062018FB7F89440911401509115016091F7
:100700001601709117014D835E836F8378878FBFC9
:100710008091540181110DC00E94620160935001CB
:1007200070935101809352019093530151E0509383
:1007300054010E9462012B013C0180915001909173
:100740005101A0915201B0915301B301A201481B84
:10075000590B6A0B7B0B41325E446105710530F425
:1007600080914A018C708C30E9F534C020914E01A3
:1007700030914F0130934D0120934C0120914B015A
:100780002F5F2A3018F420934B0102C010924B01C6
:1007900010924F0110924E01B301A201481B590B58
:1007A0006A0B7B0B4132FEE45F076105710548F07F
:1007B000805E914BAF4FBF4F40525E44610971095B
:1007C000F1CF8093500190935101A0935201B093C7
:1007D0005301C6CF80914901867021E0863019F41B
:1007E00020E001C021E01092480148E151E05A8721
:1007F000498780E090E01B86222E312CBC0123E04B
:10080000660F771F2A95E1F77D876C879101082E87
:1008100002C0359527950A94E2F7232B61F0FB017E
:10082000E85DFE4F0481158126813781012B022B63
:10083000032B09F0B8C0EC85FD85E85DFE4F008113
:10084000118122813381B301A201401B510B620B44
:10085000730B8A019B01093719462105310510F0F8
:1008600061E06B870196A985BA851496BA87A98736
:100870008430910519F6BB85B093480160915E0103
:1008800070915F018091600190916101A7019601D3
:100890000E94110529013A016D817E818F81988521
:1008A000A70196010E9411054216530664067506BB
:1008B00079F060915C0170915D01609570935D01CC
:1008C00060935C01062E000C770B89E00E94030107
:1008D000E2E4E0937C0080917A00806480937A0067
:1008E00080917A0086FDFCCFA091780080917900FC
:1008F000B0E0B82B28EC30E00E94EB042FEF33E09F
:1009000040E050E00E94F20429013A01F4E64F1A57
:10091000510861087108842D87308CF0A42D0A2EAF
:10092000000CBB0B26EE30E00E94EB04A501940105
:100930000E94F204B90185E00E9403011CC060E03E
:100940008A3FB4F485E00E947B00242D3327219553
:100950000CF43095D90126EE30E00E94EB04A5019D
:1009600094010E94F204B90186E00E94030107C0CD
:1009700085E00E947B0060E086E00E947B004D8164
:100980005E816F81788540935E0150935F01609333
:1009900060017093610160E070E0672B09F48FCE15
:1009A0000E9400008CCE0481158126813781408110
:1009B000518162817381041B150B260B370BA985AE
:1009C000BA850D931D932D933C9313971482158232
:1009D0001682178230CF0E943305B7FF0895821B1D
:1009E000930B0895052E97FB1EF400940E940905B1
:1009F00057FD07D00E94110507FC03D04EF40C945C
:100A0000090550954095309521953F4F4F4F5F4FC9
:100A1000089590958095709561957F4F8F4F9F4F6A
:100A20000895A1E21A2EAA1BBB1BFD010DC0AA1F2F
:100A3000BB1FEE1FFF1FA217B307E407F50720F047
:100A4000A21BB30BE40BF50B661F771F881F991FC2
:100A50001A9469F760957095809590959B01AC010B
:100A6000BD01CF010895A29FB001B39FC001A39F14
:100A7000700D811D1124911DB29F700D811D1124D7
:080A8000911D0895F894FFCFC9
:040A88000100000069
:107E0000112484B714BE81FFF0D085E080938100F7
:107E100082E08093C00088E18093C10086E0809377
:107E2000C20080E18093C4008EE0C9D0259A86E02C
:107E300020E33CEF91E0309385002093840096BBD3
:107E4000B09BFECF1D9AA8958150A9F7CC24DD24C4
:107E500088248394B5E0AB2EA1E19A2EF3E0BF2EE7
:107E6000A2D0813461F49FD0082FAFD0023811F036
:107E7000013811F484E001C083E08DD089C08234E0
:107E800011F484E103C0853419F485E0A6D080C0E4
:107E9000853579F488D0E82EFF2485D0082F10E0AE
:107EA000102F00270E291F29000F111F8ED06801E7
:107EB0006FC0863521F484E090D080E0DECF843638
:107EC00009F040C070D06FD0082F6DD080E0C81688
:107ED00080E7D80618F4F601B7BEE895C0E0D1E017
:107EE00062D089930C17E1F7F0E0CF16F0E7DF06D8
:107EF00018F0F601B7BEE89568D007B600FCFDCFD4
:107F0000A601A0E0B1E02C9130E011968C91119780
:107F100090E0982F8827822B932B1296FA010C0160
:107F200087BEE89511244E5F5F4FF1E0A038BF0790
:107F300051F7F601A7BEE89507B600FCFDCF97BE46
:107F4000E89526C08437B1F42ED02DD0F82E2BD052
:107F50003CD0F601EF2C8F010F5F1F4F84911BD097
:107F6000EA94F801C1F70894C11CD11CFA94CF0C13
:107F7000D11C0EC0853739F428D08EE10CD085E9AC
:107F80000AD08FE07ACF813511F488E018D01DD067
:107F900080E101D065CF982F8091C00085FFFCCF94
:107FA0009093C60008958091C00087FFFCCF809118
:107FB000C00084FD01C0A8958091C6000895E0E648
:107FC000F0E098E1908380830895EDDF803219F02E
:107FD00088E0F5DFFFCF84E1DECF1F93182FE3DFCA
:107FE0001150E9F7F2DF1F91089580E0E8DFEE27F6
:047FF000FF270994CA
:027FFE00040479
:0400000300007E007B
:00000001FF
